{
  "contractName": "StockPrediction",
  "abi": [
    {
      "inputs": [],
      "stateMutability": "nonpayable",
      "type": "constructor"
    },
    {
      "inputs": [
        {
          "internalType": "address",
          "name": "",
          "type": "address"
        }
      ],
      "name": "betAmounts",
      "outputs": [
        {
          "internalType": "uint256",
          "name": "",
          "type": "uint256"
        }
      ],
      "stateMutability": "view",
      "type": "function",
      "constant": true
    },
    {
      "inputs": [
        {
          "internalType": "address",
          "name": "",
          "type": "address"
        }
      ],
      "name": "bets",
      "outputs": [
        {
          "internalType": "int256",
          "name": "",
          "type": "int256"
        }
      ],
      "stateMutability": "view",
      "type": "function",
      "constant": true
    },
    {
      "inputs": [
        {
          "internalType": "uint256",
          "name": "",
          "type": "uint256"
        }
      ],
      "name": "bettors",
      "outputs": [
        {
          "internalType": "address",
          "name": "",
          "type": "address"
        }
      ],
      "stateMutability": "view",
      "type": "function",
      "constant": true
    },
    {
      "inputs": [],
      "name": "currentPrice",
      "outputs": [
        {
          "internalType": "int256",
          "name": "",
          "type": "int256"
        }
      ],
      "stateMutability": "view",
      "type": "function",
      "constant": true
    },
    {
      "inputs": [],
      "name": "isBettingActive",
      "outputs": [
        {
          "internalType": "bool",
          "name": "",
          "type": "bool"
        }
      ],
      "stateMutability": "view",
      "type": "function",
      "constant": true
    },
    {
      "inputs": [],
      "name": "lastCheckTime",
      "outputs": [
        {
          "internalType": "uint256",
          "name": "",
          "type": "uint256"
        }
      ],
      "stateMutability": "view",
      "type": "function",
      "constant": true
    },
    {
      "inputs": [],
      "name": "lastWinner",
      "outputs": [
        {
          "internalType": "address",
          "name": "",
          "type": "address"
        }
      ],
      "stateMutability": "view",
      "type": "function",
      "constant": true
    },
    {
      "inputs": [],
      "name": "owner",
      "outputs": [
        {
          "internalType": "address",
          "name": "",
          "type": "address"
        }
      ],
      "stateMutability": "view",
      "type": "function",
      "constant": true
    },
    {
      "inputs": [],
      "name": "predictionEndTime",
      "outputs": [
        {
          "internalType": "uint256",
          "name": "",
          "type": "uint256"
        }
      ],
      "stateMutability": "view",
      "type": "function",
      "constant": true
    },
    {
      "inputs": [],
      "name": "predictionStartTime",
      "outputs": [
        {
          "internalType": "uint256",
          "name": "",
          "type": "uint256"
        }
      ],
      "stateMutability": "view",
      "type": "function",
      "constant": true
    },
    {
      "inputs": [],
      "name": "getAllBets",
      "outputs": [
        {
          "components": [
            {
              "internalType": "address",
              "name": "bettor",
              "type": "address"
            },
            {
              "internalType": "int256",
              "name": "amount",
              "type": "int256"
            },
            {
              "internalType": "uint256",
              "name": "betAmount",
              "type": "uint256"
            }
          ],
          "internalType": "struct StockPrediction.BetInfo[]",
          "name": "",
          "type": "tuple[]"
        }
      ],
      "stateMutability": "view",
      "type": "function",
      "constant": true
    },
    {
      "inputs": [
        {
          "internalType": "int256",
          "name": "_currentPrice",
          "type": "int256"
        }
      ],
      "name": "startPrediction",
      "outputs": [],
      "stateMutability": "nonpayable",
      "type": "function"
    },
    {
      "inputs": [
        {
          "internalType": "int256",
          "name": "_prediction",
          "type": "int256"
        }
      ],
      "name": "enterBet",
      "outputs": [],
      "stateMutability": "payable",
      "type": "function",
      "payable": true
    },
    {
      "inputs": [
        {
          "internalType": "int256",
          "name": "_currentPrice",
          "type": "int256"
        }
      ],
      "name": "finalizePrediction",
      "outputs": [],
      "stateMutability": "nonpayable",
      "type": "function"
    },
    {
      "inputs": [],
      "name": "resetLastWinner",
      "outputs": [],
      "stateMutability": "nonpayable",
      "type": "function"
    },
    {
      "inputs": [],
      "name": "isPredictionOver",
      "outputs": [
        {
          "internalType": "bool",
          "name": "",
          "type": "bool"
        }
      ],
      "stateMutability": "view",
      "type": "function",
      "constant": true
    },
    {
      "inputs": [],
      "name": "getPoolAmount",
      "outputs": [
        {
          "internalType": "uint256",
          "name": "",
          "type": "uint256"
        }
      ],
      "stateMutability": "view",
      "type": "function",
      "constant": true
    }
  ],
  "bytecode": "0x60806040523480156200001157600080fd5b50336000806101000a81548173ffffffffffffffffffffffffffffffffffffffff021916908373ffffffffffffffffffffffffffffffffffffffff16021790555061012c42620000629190620000c2565b6002819055506000600860006101000a81548160ff021916908315150217905550620000fd565b6000819050919050565b7f4e487b7100000000000000000000000000000000000000000000000000000000600052601160045260246000fd5b6000620000cf8262000089565b9150620000dc8362000089565b9250828201905080821115620000f757620000f662000093565b5b92915050565b6118b5806200010d6000396000f3fe6080604052600436106100fe5760003560e01c80639d1b464a11610095578063d655c69111610064578063d655c69114610327578063d86efb2014610352578063e6c21f8514610369578063ebcfcf6b14610385578063fe188184146103c2576100fe565b80639d1b464a1461027d578063cae957a5146102a8578063ccd23226146102d3578063cdcd547d146102fc576100fe565b8063700eae73116100d1578063700eae73146101c157806389a78f1a146101ec5780638da5cb5b1461022957806398daaacd14610254576100fe565b806307736f121461010357806323d68b6a1461012e5780633482b644146101595780634ab4ba4214610196575b600080fd5b34801561010f57600080fd5b506101186103ed565b6040516101259190611093565b60405180910390f35b34801561013a57600080fd5b50610143610400565b6040516101509190611093565b60405180910390f35b34801561016557600080fd5b50610180600480360381019061017b91906110e9565b61041c565b60405161018d9190611157565b60405180910390f35b3480156101a257600080fd5b506101ab61045b565b6040516101b89190611181565b60405180910390f35b3480156101cd57600080fd5b506101d6610463565b6040516101e391906112c4565b60405180910390f35b3480156101f857600080fd5b50610213600480360381019061020e9190611312565b6106bf565b604051610220919061134e565b60405180910390f35b34801561023557600080fd5b5061023e6106d7565b60405161024b9190611157565b60405180910390f35b34801561026057600080fd5b5061027b60048036038101906102769190611395565b6106fb565b005b34801561028957600080fd5b506102926107c9565b60405161029f919061134e565b60405180910390f35b3480156102b457600080fd5b506102bd6107cf565b6040516102ca9190611181565b60405180910390f35b3480156102df57600080fd5b506102fa60048036038101906102f59190611395565b6107d5565b005b34801561030857600080fd5b50610311610cd3565b60405161031e9190611181565b60405180910390f35b34801561033357600080fd5b5061033c610cd9565b6040516103499190611181565b60405180910390f35b34801561035e57600080fd5b50610367610cdf565b005b610383600480360381019061037e9190611395565b610db1565b005b34801561039157600080fd5b506103ac60048036038101906103a79190611312565b610f2c565b6040516103b99190611181565b60405180910390f35b3480156103ce57600080fd5b506103d7610f44565b6040516103e49190611157565b60405180910390f35b600860009054906101000a900460ff1681565b600060025442106104145760019050610419565b600090505b90565b6005818154811061042c57600080fd5b906000526020600020016000915054906101000a900473ffffffffffffffffffffffffffffffffffffffff1681565b600047905090565b6060600060058054905067ffffffffffffffff811115610486576104856113c2565b5b6040519080825280602002602001820160405280156104bf57816020015b6104ac610f9a565b8152602001906001900390816104a45790505b50905060005b6005805490508110156106b757600581815481106104e6576104e56113f1565b5b9060005260206000200160009054906101000a900473ffffffffffffffffffffffffffffffffffffffff16828281518110610524576105236113f1565b5b60200260200101516000019073ffffffffffffffffffffffffffffffffffffffff16908173ffffffffffffffffffffffffffffffffffffffff1681525050600460006005838154811061057a576105796113f1565b5b9060005260206000200160009054906101000a900473ffffffffffffffffffffffffffffffffffffffff1673ffffffffffffffffffffffffffffffffffffffff1673ffffffffffffffffffffffffffffffffffffffff168152602001908152602001600020548282815181106105f3576105f26113f1565b5b60200260200101516020018181525050600660006005838154811061061b5761061a6113f1565b5b9060005260206000200160009054906101000a900473ffffffffffffffffffffffffffffffffffffffff1673ffffffffffffffffffffffffffffffffffffffff1673ffffffffffffffffffffffffffffffffffffffff16815260200190815260200160002054828281518110610694576106936113f1565b5b6020026020010151604001818152505080806106af9061144f565b9150506104c5565b508091505090565b60046020528060005260406000206000915090505481565b60008054906101000a900473ffffffffffffffffffffffffffffffffffffffff1681565b60008054906101000a900473ffffffffffffffffffffffffffffffffffffffff1673ffffffffffffffffffffffffffffffffffffffff163373ffffffffffffffffffffffffffffffffffffffff1614610789576040517f08c379a0000000000000000000000000000000000000000000000000000000008152600401610780906114f4565b60405180910390fd5b806003819055504260018190555061012c426107a59190611514565b6002819055506001600860006101000a81548160ff02191690831515021790555050565b60035481565b60015481565b60025442101561081a576040517f08c379a000000000000000000000000000000000000000000000000000000000815260040161081190611594565b60405180910390fd5b600860009054906101000a900460ff16610869576040517f08c379a000000000000000000000000000000000000000000000000000000000815260040161086090611600565b60405180910390fd5b80600381905550600060046000600560008154811061088b5761088a6113f1565b5b9060005260206000200160009054906101000a900473ffffffffffffffffffffffffffffffffffffffff1673ffffffffffffffffffffffffffffffffffffffff1673ffffffffffffffffffffffffffffffffffffffff168152602001908152602001600020549050600061090160035483610f6a565b90506000600560008154811061091a576109196113f1565b5b9060005260206000200160009054906101000a900473ffffffffffffffffffffffffffffffffffffffff1690506000600190505b600580549050811015610a525760006004600060058481548110610975576109746113f1565b5b9060005260206000200160009054906101000a900473ffffffffffffffffffffffffffffffffffffffff1673ffffffffffffffffffffffffffffffffffffffff1673ffffffffffffffffffffffffffffffffffffffff16815260200190815260200160002054905060006109eb60035483610f6a565b905084811015610a3d5781955080945060058381548110610a0f57610a0e6113f1565b5b9060005260206000200160009054906101000a900473ffffffffffffffffffffffffffffffffffffffff1693505b50508080610a4a9061144f565b91505061094e565b50600047905060008111610a9b576040517f08c379a0000000000000000000000000000000000000000000000000000000008152600401610a929061166c565b60405180910390fd5b600073ffffffffffffffffffffffffffffffffffffffff168273ffffffffffffffffffffffffffffffffffffffff1603610b0a576040517f08c379a0000000000000000000000000000000000000000000000000000000008152600401610b01906116d8565b60405180910390fd5b8173ffffffffffffffffffffffffffffffffffffffff166108fc829081150290604051600060405180830381858888f19350505050158015610b50573d6000803e3d6000fd5b5081600860016101000a81548173ffffffffffffffffffffffffffffffffffffffff021916908373ffffffffffffffffffffffffffffffffffffffff1602179055506000600181905550600060028190555060006003819055506000600860006101000a81548160ff02191690831515021790555060005b600580549050811015610c6b5760006004600060058481548110610bef57610bee6113f1565b5b9060005260206000200160009054906101000a900473ffffffffffffffffffffffffffffffffffffffff1673ffffffffffffffffffffffffffffffffffffffff1673ffffffffffffffffffffffffffffffffffffffff168152602001908152602001600020819055508080610c639061144f565b915050610bc8565b50600067ffffffffffffffff811115610c8757610c866113c2565b5b604051908082528060200260200182016040528015610cb55781602001602082028036833780820191505090505b5060059080519060200190610ccb929190610fd1565b505050505050565b60025481565b60075481565b60008054906101000a900473ffffffffffffffffffffffffffffffffffffffff1673ffffffffffffffffffffffffffffffffffffffff163373ffffffffffffffffffffffffffffffffffffffff1614610d6d576040517f08c379a0000000000000000000000000000000000000000000000000000000008152600401610d6490611744565b60405180910390fd5b6000600860016101000a81548173ffffffffffffffffffffffffffffffffffffffff021916908373ffffffffffffffffffffffffffffffffffffffff160217905550565b6002544210610df5576040517f08c379a0000000000000000000000000000000000000000000000000000000008152600401610dec906117b0565b60405180910390fd5b655af3107a4000341015610e3e576040517f08c379a0000000000000000000000000000000000000000000000000000000008152600401610e359061181c565b60405180910390fd5b80600460003373ffffffffffffffffffffffffffffffffffffffff1673ffffffffffffffffffffffffffffffffffffffff168152602001908152602001600020819055506005339080600181540180825580915050600190039060005260206000200160009091909190916101000a81548173ffffffffffffffffffffffffffffffffffffffff021916908373ffffffffffffffffffffffffffffffffffffffff16021790555034600660003373ffffffffffffffffffffffffffffffffffffffff1673ffffffffffffffffffffffffffffffffffffffff1681526020019081526020016000208190555050565b60066020528060005260406000206000915090505481565b600860019054906101000a900473ffffffffffffffffffffffffffffffffffffffff1681565b600081831215610f85578282610f80919061183c565b610f92565b8183610f91919061183c565b5b905092915050565b6040518060600160405280600073ffffffffffffffffffffffffffffffffffffffff16815260200160008152602001600081525090565b82805482825590600052602060002090810192821561104a579160200282015b828111156110495782518260006101000a81548173ffffffffffffffffffffffffffffffffffffffff021916908373ffffffffffffffffffffffffffffffffffffffff16021790555091602001919060010190610ff1565b5b509050611057919061105b565b5090565b5b8082111561107457600081600090555060010161105c565b5090565b60008115159050919050565b61108d81611078565b82525050565b60006020820190506110a86000830184611084565b92915050565b600080fd5b6000819050919050565b6110c6816110b3565b81146110d157600080fd5b50565b6000813590506110e3816110bd565b92915050565b6000602082840312156110ff576110fe6110ae565b5b600061110d848285016110d4565b91505092915050565b600073ffffffffffffffffffffffffffffffffffffffff82169050919050565b600061114182611116565b9050919050565b61115181611136565b82525050565b600060208201905061116c6000830184611148565b92915050565b61117b816110b3565b82525050565b60006020820190506111966000830184611172565b92915050565b600081519050919050565b600082825260208201905092915050565b6000819050602082019050919050565b6111d181611136565b82525050565b6000819050919050565b6111ea816111d7565b82525050565b6111f9816110b3565b82525050565b60608201600082015161121560008501826111c8565b50602082015161122860208501826111e1565b50604082015161123b60408501826111f0565b50505050565b600061124d83836111ff565b60608301905092915050565b6000602082019050919050565b60006112718261119c565b61127b81856111a7565b9350611286836111b8565b8060005b838110156112b757815161129e8882611241565b97506112a983611259565b92505060018101905061128a565b5085935050505092915050565b600060208201905081810360008301526112de8184611266565b905092915050565b6112ef81611136565b81146112fa57600080fd5b50565b60008135905061130c816112e6565b92915050565b600060208284031215611328576113276110ae565b5b6000611336848285016112fd565b91505092915050565b611348816111d7565b82525050565b6000602082019050611363600083018461133f565b92915050565b611372816111d7565b811461137d57600080fd5b50565b60008135905061138f81611369565b92915050565b6000602082840312156113ab576113aa6110ae565b5b60006113b984828501611380565b91505092915050565b7f4e487b7100000000000000000000000000000000000000000000000000000000600052604160045260246000fd5b7f4e487b7100000000000000000000000000000000000000000000000000000000600052603260045260246000fd5b7f4e487b7100000000000000000000000000000000000000000000000000000000600052601160045260246000fd5b600061145a826110b3565b91507fffffffffffffffffffffffffffffffffffffffffffffffffffffffffffffffff820361148c5761148b611420565b5b600182019050919050565b600082825260208201905092915050565b7f4f6e6c79206f776e65722063616e2073746172742070726564696374696f6e00600082015250565b60006114de601f83611497565b91506114e9826114a8565b602082019050919050565b6000602082019050818103600083015261150d816114d1565b9050919050565b600061151f826110b3565b915061152a836110b3565b925082820190508082111561154257611541611420565b5b92915050565b7f50726564696374696f6e20686173206e6f7420656e6465640000000000000000600082015250565b600061157e601883611497565b915061158982611548565b602082019050919050565b600060208201905081810360008301526115ad81611571565b9050919050565b7f50726564696374696f6e206973206e6f74206163746976650000000000000000600082015250565b60006115ea601883611497565b91506115f5826115b4565b602082019050919050565b60006020820190508181036000830152611619816115dd565b9050919050565b7f506f6f6c20697320656d70747900000000000000000000000000000000000000600082015250565b6000611656600d83611497565b915061166182611620565b602082019050919050565b6000602082019050818103600083015261168581611649565b9050919050565b7f4e6f2077696e6e657220666f756e640000000000000000000000000000000000600082015250565b60006116c2600f83611497565b91506116cd8261168c565b602082019050919050565b600060208201905081810360008301526116f1816116b5565b9050919050565b7f4f6e6c79206f776e65722063616e207265736574206c6173742077696e6e6572600082015250565b600061172e602083611497565b9150611739826116f8565b602082019050919050565b6000602082019050818103600083015261175d81611721565b9050919050565b7f50726564696374696f6e2068617320656e646564000000000000000000000000600082015250565b600061179a601483611497565b91506117a582611764565b602082019050919050565b600060208201905081810360008301526117c98161178d565b9050919050565b7f4d696e696d756d2062657420616d6f756e7420697320302e3030303120455448600082015250565b6000611806602083611497565b9150611811826117d0565b602082019050919050565b60006020820190508181036000830152611835816117f9565b9050919050565b6000611847826111d7565b9150611852836111d7565b925082820390508181126000841216828213600085121516171561187957611878611420565b5b9291505056fea2646970667358221220229bfe6c47565a20644f11c67d14d944a6108304af1d2cf9ace00bde4fdaed8264736f6c63430008100033",
  "immutableReferences": {},
  "source": "// SPDX-License-Identifier: MIT\r\npragma solidity ^0.8.0;\r\n\r\ncontract StockPrediction {\r\n    address public owner;\r\n    uint256 public predictionStartTime;\r\n    uint256 public predictionEndTime;\r\n    int public currentPrice;\r\n    mapping(address => int) public bets;\r\n    address[] public bettors;\r\n    mapping(address => uint256) public betAmounts;\r\n\r\n    uint256 public lastCheckTime;\r\n    bool public isBettingActive;\r\n    address public lastWinner;\r\n\r\n    struct Bet {\r\n        address bettor;\r\n        int amount;\r\n    }\r\n\r\n    struct BetInfo {\r\n        address bettor;\r\n        int amount;\r\n        uint256 betAmount;\r\n    }\r\n\r\n    constructor() {\r\n        owner = msg.sender;\r\n        predictionEndTime = block.timestamp + 5 minutes;\r\n        isBettingActive = false;\r\n    }\r\n\r\n    function getAllBets() public view returns (BetInfo[] memory) {\r\n        BetInfo[] memory allBets = new BetInfo[](bettors.length);\r\n        for (uint256 i = 0; i < bettors.length; i++) {\r\n            allBets[i].bettor = bettors[i];\r\n            allBets[i].amount = bets[bettors[i]];\r\n            allBets[i].betAmount = betAmounts[bettors[i]];\r\n        }\r\n        return allBets;\r\n    }\r\n\r\n    function startPrediction(int _currentPrice) public {\r\n        require(msg.sender == owner, \"Only owner can start prediction\");\r\n        currentPrice = _currentPrice;\r\n        predictionStartTime = block.timestamp;\r\n        predictionEndTime = block.timestamp + 5 minutes;\r\n        isBettingActive = true;\r\n    }\r\n\r\n    function enterBet(int _prediction) public payable {\r\n        require(block.timestamp < predictionEndTime, \"Prediction has ended\");\r\n        require(\r\n            msg.value >= 0.0001 ether,\r\n            \"Minimum bet amount is 0.0001 ETH\"\r\n        );\r\n        bets[msg.sender] = _prediction;\r\n        bettors.push(msg.sender);\r\n        betAmounts[msg.sender] = msg.value;\r\n    }\r\n\r\n    function finalizePrediction(int _currentPrice) public {\r\n        require(\r\n            block.timestamp >= predictionEndTime,\r\n            \"Prediction has not ended\"\r\n        );\r\n        require(isBettingActive, \"Prediction is not active\");\r\n\r\n        currentPrice = _currentPrice;\r\n\r\n        int closestPrediction = bets[bettors[0]];\r\n        uint closestDistance = abs(currentPrice, closestPrediction);\r\n        address payable winner = payable(bettors[0]);\r\n\r\n        for (uint i = 1; i < bettors.length; i++) {\r\n            int prediction = bets[bettors[i]];\r\n            uint distance = abs(currentPrice, prediction);\r\n            if (distance < closestDistance) {\r\n                closestPrediction = prediction;\r\n                closestDistance = distance;\r\n                winner = payable(bettors[i]);\r\n            }\r\n        }\r\n\r\n        uint pool = address(this).balance;\r\n        require(pool > 0, \"Pool is empty\");\r\n        require(winner != address(0), \"No winner found\");\r\n        winner.transfer(pool);\r\n        lastWinner = winner;\r\n\r\n        //reset\r\n\r\n        predictionStartTime = 0;\r\n        predictionEndTime = 0;\r\n        currentPrice = 0;\r\n        isBettingActive = false;\r\n\r\n        for (uint i = 0; i < bettors.length; i++) {\r\n            bets[bettors[i]] = 0;\r\n        }\r\n\r\n        bettors = new address[](0);\r\n    }\r\n\r\n    // Helper Function\r\n    function resetLastWinner() public {\r\n        require(msg.sender == owner, \"Only owner can reset last winner\");\r\n        lastWinner = address(0);\r\n    }\r\n\r\n    function isPredictionOver() public view returns (bool) {\r\n        if (block.timestamp >= predictionEndTime) {\r\n            return true;\r\n        }\r\n        return false;\r\n    }\r\n\r\n    function getPoolAmount() public view returns (uint) {\r\n        return address(this).balance;\r\n    }\r\n\r\n    function abs(int x, int y) internal pure returns (uint) {\r\n        return x >= y ? uint(x - y) : uint(y - x);\r\n    }\r\n}\r\n",
  "sourcePath": "c:\\Users\\HP\\predictiondapp\\solidity-prediction-youtube\\contracts\\StockPrediction.sol",
  "compiler": {
    "name": "solc",
    "version": "0.8.16+commit.07a7930e.Emscripten.clang"
  },
  "schemaVersion": "3.4.13",
  "updatedAt": "2023-04-07T13:58:13.891Z",
  "networkType": "ethereum",
  "devdoc": {
    "kind": "dev",
    "methods": {},
    "version": 1
  },
  "userdoc": {
    "kind": "user",
    "methods": {},
    "version": 1
  }
}